:020000040800F2
:1004000030040020051100083F11000843110008C6
:10041000471100084B1100084F11000800000000B0
:100420000000000000000000000000005311000860
:1004300057110008000000005B110008251100089A
:100440005F11000863110008671100086B110008B4
:100450006F11000873110008771100087B11000864
:100460007F11000883110008871100088B11000814
:100470008F11000893110008971100089B110008C4
:100480009F110008A3110008A7110008AB11000874
:10049000AF110008B3110008B7110008BB11000824
:1004A000BF110008C3110008C7110008CB110008D4
:1004B000CF110008D3110008D7110008DB11000884
:1004C000DF110008E3110008E7110008EB11000834
:1004D000EF110008F3110008F7110008FB110008E4
:1004E000FF11000803120008071200082DE9F0416F
:1004F000044682B02078DFF83454C0074BD56868D2
:1005000000F00C00042807D0686800F00C000828F0
:100510000CD16868C00309D52868C0F340400028A2
:1005200039D06068002836D1012034E16068B0F528
:10053000803F09D008B928680AE0B0F5A02F2868E4
:1005400006D140F480202860286840F4803005E01F
:1005500020F480302860286820F4802028606068BB
:1005600060B100F001FA07462868C0F3404090B936
:1005700000F0FAF9C01B6528F6D309E100F0F4F9A0
:1005800007462868C0F3404028B100F0EDF9C01BD1
:100590006528F6D3FCE02078DFF89C63800718D547
:1005A000686810F00C0F07D0686800F00C0008288D
:1005B00026D16868C00323D400F0F3F81CBF20697B
:1005C0000128B1D12868616920F0F80040EAC10033
:1005D00028602078000732D5A169DFF86003002980
:1005E0004ED00121016000F0BFF90746686AC0F3F0
:1005F000400010BB00F0B8F9C01B0328F6D3C7E0D9
:10060000206968B10120306000F0AEF9074600F0C3
:10061000C8F8D7D100F0A8F9C01B0328F7D3B7E07A
:10062000306000F0A1F9074600F0BBF8D1D000F02F
:100630009BF9C01B0328F7D3AAE000F09BF92078B0
:10064000400761D5E869DFF8F88240F08050E86142
:10065000E86900F0805000900098D8F8000040F45D
:100660008070C8F8000000F07FF90746D8F8000055
:10067000C00514D400F078F9C01B6528F6D387E0D4
:10068000016000F071F90746686AC0F34000002875
:10069000D5D000F069F9C01B0328F5D378E0E068F5
:1006A000012808D008B9286A09E00528286A06D177
:1006B00040F004002862286A40F0010005E040088C
:1006C00040002862286A20F00400286241F289383C
:1006D000E06860B100F048F90746286AC0F34000BE
:1006E00090B900F041F9C01B4045F6D350E000F04E
:1006F0003BF90746286AC0F3400028B100F034F9FE
:10070000C01B4045F6D343E0E069002842D0696849
:1007100001F00C0108293FF407AF02282CD100F0AA
:100720003CF807462868C0F3406028B100F01CF987
:10073000C01B0328F6D32BE0206AB0F5803F05D11B
:100740006868A16820F40030084368606868216A1E
:1007500020F474100843616A08436860012000F0C7
:100760001DF807462868C0F3406098B900F0FCF80F
:10077000C01B0328F6D30BE000F00FF807462868EB
:10078000C0F3406030B100F0EFF8C01B0328F6D38F
:10079000032000E00020BDE8F6810020306600F074
:1007A000E3B82868C0F34000002870472DE9F843FB
:1007B000644E04463068884600F00700404502D287
:1007C00000F07DF856D12078584F800705D578681D
:1007D000A16820F0F000084378602078C00741D578
:1007E0006068012803D13968C1F3404104E0022860
:1007F000396803D1C1F3406121B93BE0C1F3400145
:10080000002937D07968890840EA8100786041F290
:10081000893900F0A9F80546606801280AD178688E
:1008200000F00C0004281DD000F09EF8401B484545
:10083000F5D315E002280AD1786800F00C000828EA
:1008400010D000F091F8401B4845F5D308E07868D7
:1008500010F00C0F06D000F087F8401B4845F6D387
:1008600003202AE0306800F00700804504D200F041
:1008700026F801D0012020E02078400705D57868CF
:10088000E16820F4E060084378602078000706D52E
:100890007868216920F4605040EAC100786000F077
:1008A00018F87A682849C2F30312895CC8402149C4
:1008B0000860002000F06AF80020BDE8F28330688C
:1008C000C00848EAC0003060306800F007004045CA
:1008D000704700B585B001A80FF27801102200F032
:1008E00067F80FF280000088ADF800001748016833
:1008F00001F00C02082A12D101AAC1F38343C903F3
:10090000D25C09D500680A49C0F340401DF80000D8
:10091000B1FBF0F0504303E00D48504300E00448C1
:1009200005B000BD03480068704700000010024099
:1009300000127A0028000020000042428004424257
:1009400000700040002002404010000804100240E7
:1009500000093D0002030405060708090A0B0C0DF7
:100960000E0F10100102000001480068704700BF20
:100970002C00002011B581B0FFF7F6FF0446FFF709
:10098000F3FF0199001B8842F9D313BD10B504464B
:10099000FFF7C8FF4FF47A71B0FBF1F000F06BF88D
:1009A000002221464FF0FF3000F048F8002010BD33
:1009B000103A07D330B4B1E83810103AA0E8381034
:1009C000F9D230BC530724BFB1E80810A0E80810E2
:1009D00044BF51F8043B40F8043BD20724BF31F830
:1009E000022B20F8022B44BF0B7803707047083AA3
:1009F00007D3B1E80810083A40F8043B40F804CBAC
:100A0000F7D25307E4E700000901002806D5294A78
:100A100000F00F00104400F8041C7047264A1154DF
:100A2000704726490A684FF6FF0300021A4000F497
:100A3000E0601043224A10430860704738B51F4BEE
:100A40001B68C3F30223C3F10704052C28BF042449
:100A50001D1D072D34BF0023DB1E012505FA04F4FC
:100A6000641E2140994005FA03F35B1E1A401143AE
:100A7000BDE83440C8E710B5401EB0F1807F01D317
:100A8000012010BD0F4C60600F214FF0FF30FFF7C9
:100A9000BBFF0020A06007202060002010BD094996
:100AA000042808680CBF40F0040020F0040008602F
:100AB0007047000018ED00E000E400E00CED00E0FD
:100AC0000000FA0510E000E000F000B870470000F8
:100AD0002DE9F8474FF0000E00225E4BDFF87881D9
:100AE000DFF878914FF00F0A012707FA02F60F6836
:100AF0003740B74240F0A0804C685CB3012C1AD05C
:100B0000022C1FD0032C31D0112C17D0122C1DD049
:100B1000534DAC421CBF534DAC421BD0524DAC4266
:100B20001CBF524DAC4215D0514DAC421CBF514D73
:100B3000AC420FD01CE0D1F80CE019E0CC6804F115
:100B4000040E15E0CC6804F1080E11E0CC6804F145
:100B50000C0E0DE08C6814B94FF0040E08E0012C67
:100B60004FF0080E14BF4661066101E04FF0000E21
:100B7000FF2F02D88446940004E0A2F1080400F19B
:100B8000040CA400DCF800500AFA04F6B5430EFA8F
:100B900004F42C43CCF800404C68E4004CD5D9F860
:100BA000004044F00104C9F800404FEA920CD9F823
:100BB000005005F001040094009C58F82C5094005B
:100BC00004F00C040AFA04F6B5432B4EB04208BFF9
:100BD00000260ED0294EB04208BF012609D0284E6B
:100BE000B04208BF022604D0264EB0420CBF0326F6
:100BF000042606FA04F42C4348F82C40FD434C68C4
:100C0000E4031C684CBF3C432C401C604C68A403AC
:100C10005C684CBF3C432C405C604C68E4029C68C0
:100C20004CBF3C432C409C604C68A40247BFDC682E
:100C30002743DF682F40DF60521C102AFFF454AFB7
:100C4000BDE8F18702B9090401617047C2685140EB
:100C5000C1607047000401400800014018100240C4
:100C600000001110000012100000211000002210DE
:100C7000000031100000321000080140000C01405B
:100C800000100140001401402DE9F84F484C064681
:100C9000207E0128894692469B4608BF022027D025
:100CA000012020764CF25038404600F03AF801001E
:100CB0001CD1012E1CBF022E042600273D4D00E052
:100CC0007F1CB74212DA504659463A0100F07CF8D0
:100CD00081B209EB470000F01AF8404600F021F815
:100CE00029684908490029600100E9D000212176DE
:100CF000BDE8F28F3148C168090600D501E0012046
:100D000070472F4901602F49016000207047284B30
:100D10000022DA61274A136843F00103136001805F
:100D2000704770B50546FFF71FFE0646224C206847
:100D3000C0070AD515F1010FF9D025B1FFF714FE50
:100D4000801B8542F3D2032070BD2068800644BF1B
:100D5000202020602068C00605D42069C00702D486
:100D60002068400703D500F004F8012070BD002082
:100D700070BD11480E490268D20603D5CA6942F017
:100D80000202CA610268520703D5CA6942F0010231
:100D9000CA610269D20707D5CA6942F00402CA6172
:100DA0000169490849000161142101607047000090
:100DB00008000020102002400C20024004200240C5
:100DC00023016745AB89EFCDD2B2203A22BF21FA89
:100DD00002F0002170472032D141D040484091407C
:100DE000D14048407047000010B500F057F800F0BF
:100DF0001DF800F065F80B4C40F2D2400021C4E928
:100E00000001FFF777FFD4E900234FF000610220D3
:100E1000FFF73AFFC820FFF7ADFD20210248FFF79A
:100E200015FFF7E7000000200008014000B58FB073
:100E3000022005900120099010200A9002200C90B9
:100E400000200D904FF460100E9005A8FFF74EFBA8
:100E500000B1FEE70F200090022102200190002047
:100E600002904FF480600390002004906846FFF7E2
:100E70009DFC00B1FEE7FFF755FD4FF47A71B0FB22
:100E8000F1F0FFF7F8FD0420FFF709FE0022002132
:100E90004FF0FF30FFF7D2FD0FB000BD80B507481F
:100EA000016841F0100101600320FFF7BAFD002046
:100EB000FFF76CFD00F05AF8002002BD0020024050
:100EC00010B52648264C86B0016841F0100101603B
:100ED000016801F0100100910099016841F02001C2
:100EE0000160016801F0200100910099016841F062
:100EF00004010160016801F004010091009901689A
:100F000041F00801016001A9006800F008000090AC
:100F100000984FF400500190124802900020039076
:100F20001148FFF7D5FD0C20019001A90220029085
:100F300004902046FFF7CCFD2020019001A901205C
:100F40000290022004902046FFF7C2FD00222021DB
:100F50002046FFF777FE06B010BD00BF1810024014
:100F600000080140000012100010014080B51F4829
:100F7000016841F001010160006800F0010000908B
:100F800000980320FFF74DFD002200216FF00B00B9
:100F9000FFF754FD002200216FF00A00FFF74EFD1D
:100FA000002200216FF00900FFF748FD0022002118
:100FB0006FF00400FFF742FD002200216FF00300F4
:100FC000FFF73CFD002200216FF00100FFF736FD26
:100FD000002200214FF0FF30FFF730FD0448016888
:100FE00021F0E06141F00071016001BD1810024084
:100FF000040001400D480E4A016841F00101016002
:101000004168114041600B4A01681140016001686C
:1010100021F480210160416821F4FE0141604FF418
:101020001F018160044805490860704700100240B4
:101030000000FFF8FFFFF6FE0004000808ED00E0E6
:101040000000000000000000010203040607080978
:1010500030B5016842688468014401EB5203D2074D
:1010600048BF4C44994201D10C3030BD11F9012BDD
:1010700011F8015B002A04F8015B02D5521CF9D17A
:10108000F0E7521EF4D5EDE710B507497944183161
:10109000064C7C44163404E00A68081D1144884755
:1010A0000146A142F8D110BD080000001400000064
:1010B000A1FFFFFF5601000010000000000000200B
:1010C00000F00BF8002801D0FFF7DEFF0020C0463B
:1010D000C046FFF789FE00F002F80120704700F0DB
:1010E00001B800000746384600F002F8FBE70000B0
:1010F00080B5C046C046024A11001820ABBEFBE7CF
:10110000260002000148804701480047F50F00080B
:101110003311000802480168491C0160704700BF94
:101120002C00002080B5FFF7F5FFBDE80140FFF778
:10113000CBBCC046C046C046C046FFF7C1FFFFF764
:10114000FEBFFFF7FEBFFFF7FEBFFFF7FEBFFFF7D3
:10115000FEBFFFF7FEBFFFF7FEBFFFF7FEBFFFF7C3
:10116000FEBFFFF7FEBFFFF7FEBFFFF7FEBFFFF7B3
:10117000FEBFFFF7FEBFFFF7FEBFFFF7FEBFFFF7A3
:10118000FEBFFFF7FEBFFFF7FEBFFFF7FEBFFFF793
:10119000FEBFFFF7FEBFFFF7FEBFFFF7FEBFFFF783
:1011A000FEBFFFF7FEBFFFF7FEBFFFF7FEBFFFF773
:1011B000FEBFFFF7FEBFFFF7FEBFFFF7FEBFFFF763
:1011C000FEBFFFF7FEBFFFF7FEBFFFF7FEBFFFF753
:1011D000FEBFFFF7FEBFFFF7FEBFFFF7FEBFFFF743
:1011E000FEBFFFF7FEBFFFF7FEBFFFF7FEBFFFF733
:1011F000FEBFFFF7FEBFFFF7FEBFFFF7FEBFFFF723
:10120000FEBFFFF7FEBFFFF7FEBFD70002A24A04F2
:02121000FC00E0
:0400000508001133AB
:00000001FF
